{
  "contractName": "ComplexStorage",
  "abi": [
    {
      "constant": true,
      "inputs": [],
      "name": "owner",
      "outputs": [
        {
          "name": "",
          "type": "address"
        }
      ],
      "payable": false,
      "stateMutability": "view",
      "type": "function"
    },
    {
      "constant": true,
      "inputs": [],
      "name": "numReports",
      "outputs": [
        {
          "name": "",
          "type": "uint256"
        }
      ],
      "payable": false,
      "stateMutability": "view",
      "type": "function"
    },
    {
      "constant": true,
      "inputs": [
        {
          "name": "",
          "type": "uint256"
        }
      ],
      "name": "reports",
      "outputs": [
        {
          "name": "reportHash",
          "type": "bytes32"
        },
        {
          "name": "reportTimestamp",
          "type": "uint32"
        },
        {
          "name": "lat",
          "type": "uint8"
        },
        {
          "name": "lng",
          "type": "uint8"
        }
      ],
      "payable": false,
      "stateMutability": "view",
      "type": "function"
    },
    {
      "constant": false,
      "inputs": [
        {
          "name": "newOwner",
          "type": "address"
        }
      ],
      "name": "transferOwnership",
      "outputs": [],
      "payable": false,
      "stateMutability": "nonpayable",
      "type": "function"
    },
    {
      "inputs": [],
      "payable": false,
      "stateMutability": "nonpayable",
      "type": "constructor"
    },
    {
      "payable": true,
      "stateMutability": "payable",
      "type": "fallback"
    },
    {
      "anonymous": false,
      "inputs": [
        {
          "indexed": false,
          "name": "_reportHash",
          "type": "bytes32"
        },
        {
          "indexed": false,
          "name": "_reportTimestamp",
          "type": "uint32"
        }
      ],
      "name": "ReportMade",
      "type": "event"
    },
    {
      "anonymous": false,
      "inputs": [
        {
          "indexed": false,
          "name": "_reportHash",
          "type": "bytes32"
        },
        {
          "indexed": false,
          "name": "_sender",
          "type": "address"
        }
      ],
      "name": "ReportRequested",
      "type": "event"
    },
    {
      "constant": false,
      "inputs": [
        {
          "name": "report",
          "type": "string"
        },
        {
          "name": "timestamp",
          "type": "uint32"
        },
        {
          "name": "latitude",
          "type": "uint8"
        },
        {
          "name": "longitude",
          "type": "uint8"
        }
      ],
      "name": "makeReport",
      "outputs": [
        {
          "name": "",
          "type": "bool"
        }
      ],
      "payable": false,
      "stateMutability": "nonpayable",
      "type": "function"
    },
    {
      "constant": true,
      "inputs": [
        {
          "name": "index",
          "type": "uint256"
        }
      ],
      "name": "queryReportHash",
      "outputs": [
        {
          "name": "",
          "type": "bytes32"
        }
      ],
      "payable": false,
      "stateMutability": "view",
      "type": "function"
    },
    {
      "constant": true,
      "inputs": [],
      "name": "queryLastReportHash",
      "outputs": [
        {
          "name": "",
          "type": "bytes32"
        }
      ],
      "payable": false,
      "stateMutability": "view",
      "type": "function"
    },
    {
      "constant": true,
      "inputs": [
        {
          "name": "index",
          "type": "uint256"
        }
      ],
      "name": "queryReportLat",
      "outputs": [
        {
          "name": "",
          "type": "uint8"
        }
      ],
      "payable": false,
      "stateMutability": "view",
      "type": "function"
    },
    {
      "constant": true,
      "inputs": [],
      "name": "queryLastReportLat",
      "outputs": [
        {
          "name": "",
          "type": "uint8"
        }
      ],
      "payable": false,
      "stateMutability": "view",
      "type": "function"
    },
    {
      "constant": true,
      "inputs": [
        {
          "name": "index",
          "type": "uint256"
        }
      ],
      "name": "queryReportLng",
      "outputs": [
        {
          "name": "",
          "type": "uint8"
        }
      ],
      "payable": false,
      "stateMutability": "view",
      "type": "function"
    },
    {
      "constant": true,
      "inputs": [],
      "name": "queryLastReportLng",
      "outputs": [
        {
          "name": "",
          "type": "uint8"
        }
      ],
      "payable": false,
      "stateMutability": "view",
      "type": "function"
    },
    {
      "constant": true,
      "inputs": [
        {
          "name": "index",
          "type": "uint256"
        }
      ],
      "name": "queryReportTimestamp",
      "outputs": [
        {
          "name": "",
          "type": "uint32"
        }
      ],
      "payable": false,
      "stateMutability": "view",
      "type": "function"
    },
    {
      "constant": true,
      "inputs": [],
      "name": "queryLastReportTimestamp",
      "outputs": [
        {
          "name": "",
          "type": "uint32"
        }
      ],
      "payable": false,
      "stateMutability": "view",
      "type": "function"
    },
    {
      "constant": true,
      "inputs": [],
      "name": "getNumReports",
      "outputs": [
        {
          "name": "",
          "type": "uint256"
        }
      ],
      "payable": false,
      "stateMutability": "view",
      "type": "function"
    }
  ],
  "bytecode": "0x608060405234801561001057600080fd5b5060008054600160a060020a033316600160a060020a03199091161781556001556109b2806100406000396000f3006080604052600436106100cf5763ffffffff7c0100000000000000000000000000000000000000000000000000000000600035041663169eb1db81146100d157806342ff97b01461010257806344a7bfaf146101305780634f520ee3146101455780636db8fd04146101c957806370297c98146101f05780637ddc031c146102055780638da5cb5b1461021d578063a13a750d1461025b578063a24ede2614610273578063ae30c5c614610288578063c942adf71461029d578063ec3c9db9146102e3578063f2fde38b146102f8575b005b3480156100dd57600080fd5b506100e9600435610326565b6040805163ffffffff9092168252519081900360200190f35b34801561010e57600080fd5b5061011a6004356103a5565b6040805160ff9092168252519081900360200190f35b34801561013c57600080fd5b5061011a61042a565b34801561015157600080fd5b506040805160206004803580820135601f81018490048402850184019095528484526101b59436949293602493928401919081908401838280828437509497505050833563ffffffff169450505050602081013560ff90811691604001351661049f565b604080519115158252519081900360200190f35b3480156101d557600080fd5b506101de610638565b60408051918252519081900360200190f35b3480156101fc57600080fd5b5061011a6106a0565b34801561021157600080fd5b5061011a600435610716565b34801561022957600080fd5b5061023261079a565b6040805173ffffffffffffffffffffffffffffffffffffffff9092168252519081900360200190f35b34801561026757600080fd5b506101de6004356107b6565b34801561027f57600080fd5b506101de61082c565b34801561029457600080fd5b506100e9610832565b3480156102a957600080fd5b506102b56004356108a2565b6040805194855263ffffffff909316602085015260ff91821684840152166060830152519081900360800190f35b3480156102ef57600080fd5b506101de6108da565b34801561030457600080fd5b506100cf73ffffffffffffffffffffffffffffffffffffffff600435166108e0565b60015460009082111561033857600080fd5b60008281526002602090815260409182902054825190815273ffffffffffffffffffffffffffffffffffffffff3316918101919091528151600080516020610967833981519152929181900390910190a15060009081526002602052604090206001015463ffffffff1690565b6001546000908211156103b757600080fd5b60008281526002602090815260409182902054825190815273ffffffffffffffffffffffffffffffffffffffff3316918101919091528151600080516020610967833981519152929181900390910190a15060009081526002602052604090206001015465010000000000900460ff1690565b600154600090815260026020908152604080832054815190815273ffffffffffffffffffffffffffffffffffffffff33169281019290925280516000805160206109678339815191529281900390910190a1506001805460009081526002602052604090200154640100000000900460ff1690565b600080543373ffffffffffffffffffffffffffffffffffffffff9081169116146104c857600080fd5b600180548101905560405185516002918791819060208401908083835b602083106105045780518252601f1990920191602091820191016104e5565b51815160209384036101000a600019018019909216911617905260405191909301945091925050808303816000865af1158015610545573d6000803e3d6000fd5b5050506040513d602081101561055a57600080fd5b505160018054600090815260026020908152604080832094909455825482528382208301805463ffffffff808b1663ffffffff1990921691909117909155835483528483208401805460ff808b166401000000000264ff0000000019909216919091179091558454845285842085018054918916650100000000000265ff0000000000199092169190911790558354835291849020805493015484519384529091169082015281517f731b8f9b6112f06847e532cc3cc850f2f87b09e924fad7b781f5919021dcf136929181900390910190a1506001949350505050565b600154600090815260026020908152604080832054815190815273ffffffffffffffffffffffffffffffffffffffff33169281019290925280516000805160206109678339815191529281900390910190a15060015460009081526002602052604090205490565b600154600090815260026020908152604080832054815190815273ffffffffffffffffffffffffffffffffffffffff33169281019290925280516000805160206109678339815191529281900390910190a150600180546000908152600260205260409020015465010000000000900460ff1690565b60015460009082111561072857600080fd5b60008281526002602090815260409182902054825190815273ffffffffffffffffffffffffffffffffffffffff3316918101919091528151600080516020610967833981519152929181900390910190a150600090815260026020526040902060010154640100000000900460ff1690565b60005473ffffffffffffffffffffffffffffffffffffffff1681565b6001546000908211156107c857600080fd5b60008281526002602090815260409182902054825190815273ffffffffffffffffffffffffffffffffffffffff3316918101919091528151600080516020610967833981519152929181900390910190a15060009081526002602052604090205490565b60015481565b600154600090815260026020908152604080832054815190815273ffffffffffffffffffffffffffffffffffffffff33169281019290925280516000805160206109678339815191529281900390910190a150600180546000908152600260205260409020015463ffffffff1690565b6002602052600090815260409020805460019091015463ffffffff81169060ff64010000000082048116916501000000000090041684565b60015490565b6000543373ffffffffffffffffffffffffffffffffffffffff90811691161461090857600080fd5b73ffffffffffffffffffffffffffffffffffffffff8116151561092a57600080fd5b6000805473ffffffffffffffffffffffffffffffffffffffff191673ffffffffffffffffffffffffffffffffffffffff9290921691909117905556002fad3916d17402903d14c1818fbd73cb009321e307b178b606f3f1671e75ece8a165627a7a72305820ffd2600cf7c25e64cc72b19664abd2ec7d0f326977a79e19db061c97980991260029",
  "source": "pragma solidity ^0.4.0;\n\ncontract Ownable {\n\n  address public owner;\n\n  /**\n   * @dev The Ownable constructor sets the original `owner` of the contract to the sender\n   * account.\n   */\n  constructor() {\n    owner = msg.sender;\n  }\n\n  /**\n   * @dev Throws if called by any account other than the owner.\n   */\n  modifier onlyOwner() {\n    require(msg.sender == owner);\n    _;\n  }\n\n  /**\n   * @dev Allows the current owner to transfer control of the contract to a newOwner.\n   * @param newOwner The address to transfer ownership to.\n   */\n  function transferOwnership(address newOwner) onlyOwner {\n    require(newOwner != address(0));\n    owner = newOwner;\n  }\n\n}\n\ncontract ComplexStorage is Ownable {\n\n\t//state variables\n\tuint public numReports; //total number of reports hashed\n\tmapping (uint => Report) public reports; //hash of report is id --> report struct\n\tstruct Report {\n\t\tbytes32 reportHash;\n\t\tuint32 reportTimestamp;\n\t\tuint8 lat;\n\t\tuint8 lng;\n\t}\n\n\t//constructor\n\tconstructor() {\n\t\t//set numReports\n\t\tnumReports = 0;\n\t}\n\n\t//events\n\tevent ReportMade (bytes32 _reportHash, uint32 _reportTimestamp);\n\tevent ReportRequested (bytes32 _reportHash, address _sender);\n\n\t//functions\n\t\t//make a report (only by owner, which makes sense because all api calls will use owner address)\n\t\tfunction makeReport(string report, uint32 timestamp, uint8 latitude, uint8 longitude) public onlyOwner returns (bool) {\n\t\t\t//incrementing Account\n\t\t\tnumReports += 1;\n\t\t\t//adding new report to reports\n\t\t\treports[numReports].reportHash = sha256(report); //should be hashed before entering mapping?\n\t\t\treports[numReports].reportTimestamp = timestamp;\n\t\t\treports[numReports].lat = latitude;\n\t\t\treports[numReports].lng = longitude;\n\t\t\t//emit event\n\t\t\tReportMade(reports[numReports].reportHash, reports[numReports].reportTimestamp);\n\t\t\treturn true;\n\t\t}\n\t\t//query for report hash\n\t\tfunction queryReportHash(uint index) view public returns (bytes32) {\n      //require\n      require(index <= numReports);\n      //emit event\n\t\t\tReportRequested(reports[index].reportHash, msg.sender);\n      //return\n\t\t\treturn reports[index].reportHash;\n\t\t}\n\n    function queryLastReportHash() view public returns (bytes32) {\n      //emit event\n\t\t\tReportRequested(reports[numReports].reportHash, msg.sender);\n      //return\n\t\t\treturn reports[numReports].reportHash;\n\t\t}\n\n\t\t//query for a report lat\n\t\tfunction queryReportLat(uint index) view public returns (uint8) {\n      //require\n      require(index <= numReports);\n      //emit event\n\t\t\tReportRequested(reports[index].reportHash, msg.sender);\n\t\t\t//return\n\t\t\treturn reports[index].lat;\n\t\t}\n\n    function queryLastReportLat() view public returns (uint8) {\n      //emit event\n\t\t\tReportRequested(reports[numReports].reportHash, msg.sender);\n\t\t\t//return\n\t\t\treturn reports[numReports].lat;\n\t\t}\n\n\n\t\t//query for a report lng\n\t\tfunction queryReportLng(uint index) view public returns (uint8) {\n      //require\n      require(index <= numReports);\n      //emit event\n\t\t\tReportRequested(reports[index].reportHash, msg.sender);\n\t\t\t//return\n\t\t\treturn reports[index].lng;\n\t\t}\n\n    function queryLastReportLng() view public returns (uint8) {\n      //emit event\n\t\t\tReportRequested(reports[numReports].reportHash, msg.sender);\n\t\t\t//return\n\t\t\treturn reports[numReports].lng;\n\t\t}\n\n\t\t//query for a report timestamp\n\t\tfunction queryReportTimestamp(uint index) view public returns (uint32) {\n      //require\n      require(index <= numReports);\n      //emit event\n\t\t\tReportRequested(reports[index].reportHash, msg.sender);\n\t\t\t//return\n\t\t\treturn reports[index].reportTimestamp;\n\t\t}\n\n    function queryLastReportTimestamp() view public returns (uint32) {\n      //emit event\n\t\t\tReportRequested(reports[numReports].reportHash, msg.sender);\n\t\t\t//return\n\t\t\treturn reports[numReports].reportTimestamp;\n\t\t}\n\n\n\t\t//query for number of reports\n\t\tfunction getNumReports() view public returns (uint) {\n\t\t\t\t//return\n\t\t\t return numReports;\n\t\t}\n\n\t//fallback\n\tfunction() payable { }\n}\n",
  "sourcePath": "/Applications/MAMP/htdocs/drizzleBoxBuild/contracts/ComplexStorage.sol",
  "compiler": {
    "name": "solc",
    "version": "0.4.23+commit.124ca40d.Emscripten.clang"
  },
  "schemaVersion": "2.0.0",
  "updatedAt": "2018-05-17T08:04:54.860Z"
}